:100000000C945D000C94B0010C947A000C947A006E
:100010000C947A000C947A000C947A000C947A0078
:100020000C947A000C947A000C947A000C947A0068
:100030000C947A000C947A000C947A000C947A0058
:100040000C947A000C947A000C947A000C947A0048
:100050000C947A000C947A000C947A000C947A0038
:100060000C947A000C947A000902120001010080BD
:100070001909040000000000000012011001FF0037
:100080000008C016DC050201010200010E03550044
:10009000530042006100730070001C03770077007A
:1000A00077002E00660069007300630068006C0032
:1000B0002E00640065000403090411241FBECFEF65
:1000C000D8E0DEBFCDBF11E0A0E0B1E0ECE9FDE09B
:1000D00002C005900D92A230B107D9F711E0A2E05D
:1000E000B1E001C01D92A334B107E1F70E94990667
:1000F0000C94CC060C940000CF93DF936091270101
:10010000635067FDA4C080912401CCE0D0E0C81BFF
:10011000D109C55DDE4F809123018D3209F085C084
:10012000683009F092C083EC809317018AE58093D0
:100130000101109202018881807621F0CE010E9497
:100140009D0460C08A81109220019981911106C09E
:100150001092210120E231E082E050C0953019F484
:10016000809328013DC09630A9F59B81913019F408
:100170008AE790E004C0923041F488E690E09093E2
:1001800026018093250182E121C09330F1F4811191
:1001900008C086EB90E0909326018093250184E0CF
:1001A00015C0813041F48AE990E090932601809354
:1001B00025018CE10BC0823041F48CE890E09093F3
:1001C0002601809325018EE001C080E090E49093A9
:1001D000020118C0983079F0993031F480932A01E7
:1001E00020E231E080E00AC081E09A3009F080E04E
:1001F00020E231E003C02AE231E081E030932601C1
:10020000209325018F3F39F4988197FD8E8190E8E6
:100210009093020107C09F81911104C09E8198179D
:1002200008F4892F8093000110C08091020187FF9C
:100230000CC0CE010E9405068F3F21F48EE1809311
:10024000010103C0811110920001109227018091D9
:10025000010184FF58C0809100018F3F09F453C011
:10026000C82F893008F0C8E08C1B80930001809172
:10027000170198E8892780931701CC2391F1809189
:10028000020187FF09C06C2F88E191E00E94BC0544
:10029000C82F893090F525C0409125015091260145
:1002A00086FF0BC0A8E1B1E0FA018C2F8A0F949170
:1002B0009D9331968A13FBCF09C0DA01E8E1F1E0A2
:1002C0008C2F8E0F9D9191938E13FCCF2FEF2C0FBF
:1002D00030E02F5F3F4F240F351F309326012093CE
:1002E00025016C2F88E191E00E94AC01CC5FCC30FD
:1002F00041F08FEF8093000104C08FEF80930001E5
:10030000CEE1C093010184E199B1947131F481503F
:10031000D9F71092280110922201DF91CF91089510
:10032000E9E6F0E0808183608083E89A0895A82F51
:10033000B92F80E090E041E050EA609530E009C0DC
:100340002D9182279795879510F084279527305E09
:10035000C8F36F5FA8F30895EADF8D939D93089526
:10036000CF93CFB7CF93DF93C3954C9BE9F74C9BCB
:100370000BC04C9B09C04C9B07C04C9B05C04C9BC1
:1003800003C04C9B01C089C06F93C0912401DD273D
:10039000C55DDE4F2F9365E54C9B03C02F916F9198
:1003A000E6CF0F931F934F9320E040E15F9309B195
:1003B000047104FB27F93F9350E03BE039C014710E
:1003C00040642F77012F5F5F1EC0406819B1147120
:1003D0002F7752501FC0406409B12F770471D1F1BB
:1003E0005F5F00C023C0406219B12F77147191F193
:1003F0005F5F00C025C004711027515012F45D5F8B
:100400000000115027952C3F19B1C8F6147101272F
:10041000015027952C3FC8F64227499309B1047132
:1004200010274F73115027952C3FA8F646954695F7
:1004300019B1147179F00127015027952C3F98F6D6
:100440006B5A60F3315009B1B0F600C011E01CBB2B
:10045000002717C03B503195C31BD04011E01CBB97
:100460000881033CF9F00B34E9F020912201198155
:10047000110F1213EDCF093651F10D3211F0013E7B
:1004800039F7009329013F915F914F911F910F918F
:100490002F916F91CCB3C0FD67CFDF91CF91CFBFCC
:1004A000CF91189520912901222369F310912701FA
:1004B000112339F534303AF1309327012093230189
:1004C000109124013BE0311B309324011CC00091AA
:1004D00027010130B4F40AE53091010134FD14C064
:1004E00000930101C7E1D1E013C0052710E000C06F
:1004F00000000BB91AC0052710E0221F1DC010E034
:1005000021C04AE502C032ED432FC4E1D0E032E021
:100510001AB114615C9A0BB11AB954E120E865E391
:1005200020FF05270BB9279517951C3FF0F6669518
:10053000B8F7B1F720FF05270BB9279517951C3F92
:10054000D0F62795179517FF052700001C3F0BB91C
:10055000B0F629913A9519F70B7E10912801110FE9
:10056000C651D0400BB911F01093220111E01CBB11
:1005700000611AB11B7E402F4B7E54E05A95F1F773
:100580000BB91AB94BB97FCF8EBD0DB407FEFDCFA5
:100590008EB5089583E58CBD0895811103C08FED5C
:1005A00092E002C084EC92E090934201809341017A
:1005B000089596B586B5891B8031E0F308950F93B1
:1005C0001F93CF93DF931F92CDB7DEB708E010E003
:1005D00087FF02C02B9A01C02B98880F110F1C991E
:1005E0001F5F2D9A89830E94D9022D980E94D902FB
:1005F000015089810111ECCF812F0F90DF91CF91B4
:100600001F910F91089584B18C6284B92A982D9816
:100610000E94D9022A9A0E94D9022A988091410107
:1006200090914201845C924011F483E58CBD089561
:1006300084B1837D84B985B1837D85B91CBC08955F
:10064000CF93DF93C1E2C15061F1E0914101F0919C
:1006500042018CEA0995E0914101F091420183E564
:100660000995E0914101F091420180E00995D82F70
:10067000E0914101F091420180E00995D33599F074
:100680001CBC2D9A0E94D9022D980E94D9028091FB
:10069000410190914201845C9240A9F683E58CBDB2
:1006A000D2CF81E001C080E0DF91CF910895CF9259
:1006B000DF92EF92FF926B017C01862F8170880F91
:1006C000880F880FE0914101F09142018062099505
:1006D000D701C60129E0B695A795979587952A95E4
:1006E000D1F7E0914101F09142010995D701C6018E
:1006F000B695A79597958795E0914101F0914201B4
:100700000995E0914101F091420180E0FF90EF9066
:10071000DF90CF900994CF92DF92EF92FF920F93E8
:100720001F93CF93DF931F92CDB7DEB76B017C0190
:10073000142F862F8170880F880F880FE091410158
:10074000F0914201806429830995D701C60149E0EF
:10075000B695A795979587954A95D1F7E091410170
:10076000F09142010995D701C601B695A7959795D5
:100770008795E0914101F09142010995E091410195
:10078000F0914201812F09952981222329F01F37F9
:1007900029F48FE00E94920480E011C006B51EE1AA
:1007A000C701B6010E9457038F37B1F786B5801B8A
:1007B000813510F006B511501111F2CF81E00F9084
:1007C000DF91CF911F910F91FF90EF90DF90CF902D
:1007D0000895CF92DF92EF92FF920F931F93CF93E2
:1007E000DF931F92CDB7DEB76B017C01E091410131
:1007F000F09142018CE449830995D701C60169E073
:10080000B695A795979587956A95D1F7E09141019F
:10081000F09142010995D701C601B695A795979524
:100820008795E0914101F09142010995E0914101E4
:10083000F091420180E0099549814F3F21F48FE01A
:100840000E94920412C006B51EE1C701B6010E94C3
:1008500057038F3F51F486B5801B813510F006B5E4
:1008600011501111F2CF81E001C080E00F90DF91B3
:10087000CF911F910F91FF90EF90DF90CF9008954F
:100880001F93CF93DF931F92CDB7DEB7182FE09160
:100890004101F091420180EA99830995E09141017B
:1008A000F09142019981892F0995E0914101F091E0
:1008B0004201812F0995E0914101F091420180E0D0
:1008C0000F90DF91CF911F9109941F93CF93DF93E6
:1008D00000D0CDB7DEB7182FE0914101F091420171
:1008E00080EC6A8399830995E0914101F09142017E
:1008F0009981892F0995E0914101F0914201812F61
:100900000995E0914101F09142016A81862F099594
:100910008EE10E94920480E00F900F90DF91CF91C2
:100920001F91089590E0981739F036B526B5231B2E
:100930002035E0F39F5FF7CF0895CF93DF93EC016D
:1009400089818130D1F4329902C080E001C081E018
:100950000E94CD0210920D01419888B1886188B93A
:10096000219A8FE0EFE3FCE93197F1F700C0000036
:100970008150C1F70E940303F5C0823041F40E9408
:100980001803219888B1877E88B9419AEBC08330DB
:1009900011F5E0914101F09142018A81099580931E
:1009A0000F01E0914101F09142018B810995809303
:1009B0001001E0914101F09142018C8109958093F1
:1009C0001101E0914101F09142018D8109958093DF
:1009D000120184E0C8C0843011F580910D018111AD
:1009E00012C08B8190E0982F88272A81822BAA271A
:1009F00097FDA095BA2F8093090190930A01A093C7
:100A00000B01B0930C018F8190E0982F88272E81E5
:100A1000822B909308018093070182E08EC087307B
:100A200011F580910D01811112C08B8190E0982FFA
:100A300088272A81822BAA2797FDA095BA2F809319
:100A4000090190930A01A0930B01B0930C018F81CF
:100A500090E0982F88272E81822B90930801809315
:100A6000070183E06AC0853031F40E94200380933F
:100A70000F0181E078C08630B9F580910D018111B8
:100A800012C04B8150E0542F44278A81482B66279F
:100A900057FD6095762F4093090150930A016093AA
:100AA0000B0170930C013C812D81822F8F708093FC
:100AB0000401822F807FF0E18F9FC0011124830FFA
:100AC000911D909306018093050120FD8093030101
:100AD0008F8190E0982F88272E81822B9093080198
:100AE0008093070181E029C0883059F580910D017C
:100AF000811112C04B8150E0542F44278A81482B2A
:100B0000662757FD6095762F4093090150930A019F
:100B100060930B0170930C01109206011092050175
:100B2000109204018F8190E0982F88272E81822BCC
:100B3000909308018093070184E080930E018FEF6A
:100B400012C0893079F481E080930D018A819B8104
:100B5000AC81BD818093090190930A01A0930B01A0
:100B6000B0930C0180E02FE031E030932601209318
:100B70002501DF91CF9108950F931F93CF93DF93BA
:100B8000162F20910E0122502230B8F5082FEC01CB
:100B90008C2F801B811760F580910E01823059F4F3
:100BA0006091090170910A0180910B0190910C01F3
:100BB0000E94570306C08091090190910A010E948A
:100BC000400488834091090150910A0160910B0112
:100BD00070910C014F5F5F4F6F4F7F4F4093090142
:100BE00050930A0160930B0170930C012196D0CFB2
:100BF000183028F410920E0102C08FEF01C0812F2F
:100C0000DF91CF911F910F910895FF920F931F9342
:100C1000CF93DF93F62E20910E01213019F024306E
:100C200009F080C0082FEC0110E08C2F801B8F157D
:100C300008F076C080910E01813071F52091050198
:100C4000309106016091090170910A0180910B01B8
:100C500090910C01232B29F421E048810E948B0301
:100C600022C020E048810E948B03809103018150C3
:100C700080930301811117C06091090170910A01ED
:100C800080910B0190910C0148810E94E9038091B1
:100C900005018093030107C068818091090190914B
:100CA0000A010E9465048091070190910801019753
:100CB0009093080180930701892BE1F410920E01B3
:100CC0008091040181FF15C02091030130E08091E3
:100CD0000501909106012817390759F06091090123
:100CE00070910A0180910B0190910C0148810E9442
:100CF000E90311E04091090150910A0160910B0153
:100D000070910C014F5F5F4F6F4F7F4F4093090110
:100D100050930A0160930B0170930C01219685CFCB
:100D2000812F01C08FEFDF91CF911F910F91FF9025
:100D300008950E949001549A80E0815039F0EFE9C3
:100D4000FFE03197F1F700C00000F7CF549888B169
:100D5000836088B987B1836087B987B1886187B9B3
:100D6000429A82E88093800089E1809381008FE03D
:100D700090E0909387008093860087E090E09093C6
:100D800089008093880083E085BD81E00E94CD02C8
:0C0D900078940E947C00FDCFF894FFCF07
:020D9C00FF5AFC
:00000001FF
